{
  "_format": "hh-sol-artifact-1",
  "contractName": "StakeEther",
  "sourceName": "contracts/StakeEther.sol",
  "abi": [
    {
      "inputs": [],
      "stateMutability": "nonpayable",
      "type": "constructor"
    },
    {
      "inputs": [],
      "name": "NoActiveStake",
      "type": "error"
    },
    {
      "inputs": [],
      "name": "NoRewardsToClaim",
      "type": "error"
    },
    {
      "inputs": [],
      "name": "NotOwner",
      "type": "error"
    },
    {
      "inputs": [],
      "name": "ZeroAddressDetected",
      "type": "error"
    },
    {
      "inputs": [],
      "name": "ZeroValueNotAllowed",
      "type": "error"
    },
    {
      "anonymous": false,
      "inputs": [
        {
          "indexed": true,
          "internalType": "address",
          "name": "user",
          "type": "address"
        },
        {
          "indexed": true,
          "internalType": "uint256",
          "name": "reward",
          "type": "uint256"
        }
      ],
      "name": "RewardsClaimed",
      "type": "event"
    },
    {
      "anonymous": false,
      "inputs": [
        {
          "indexed": true,
          "internalType": "address",
          "name": "user",
          "type": "address"
        },
        {
          "indexed": true,
          "internalType": "uint256",
          "name": "amount",
          "type": "uint256"
        }
      ],
      "name": "Staked",
      "type": "event"
    },
    {
      "inputs": [
        {
          "internalType": "uint256",
          "name": "_amount",
          "type": "uint256"
        },
        {
          "internalType": "uint256",
          "name": "_duration",
          "type": "uint256"
        }
      ],
      "name": "addStake",
      "outputs": [],
      "stateMutability": "nonpayable",
      "type": "function"
    },
    {
      "inputs": [
        {
          "internalType": "uint256",
          "name": "",
          "type": "uint256"
        }
      ],
      "name": "allStakes",
      "outputs": [
        {
          "internalType": "uint256",
          "name": "tokenAmount",
          "type": "uint256"
        },
        {
          "internalType": "uint256",
          "name": "startTime",
          "type": "uint256"
        },
        {
          "internalType": "uint256",
          "name": "duration",
          "type": "uint256"
        },
        {
          "internalType": "uint256",
          "name": "expectedReward",
          "type": "uint256"
        },
        {
          "internalType": "bool",
          "name": "isStaked",
          "type": "bool"
        },
        {
          "internalType": "bool",
          "name": "isClaimed",
          "type": "bool"
        }
      ],
      "stateMutability": "view",
      "type": "function"
    },
    {
      "inputs": [],
      "name": "claimReward",
      "outputs": [],
      "stateMutability": "nonpayable",
      "type": "function"
    },
    {
      "inputs": [
        {
          "internalType": "address",
          "name": "_user",
          "type": "address"
        }
      ],
      "name": "getAnyStake",
      "outputs": [
        {
          "components": [
            {
              "internalType": "uint256",
              "name": "tokenAmount",
              "type": "uint256"
            },
            {
              "internalType": "uint256",
              "name": "startTime",
              "type": "uint256"
            },
            {
              "internalType": "uint256",
              "name": "duration",
              "type": "uint256"
            },
            {
              "internalType": "uint256",
              "name": "expectedReward",
              "type": "uint256"
            },
            {
              "internalType": "bool",
              "name": "isStaked",
              "type": "bool"
            },
            {
              "internalType": "bool",
              "name": "isClaimed",
              "type": "bool"
            }
          ],
          "internalType": "struct StakeEther.Stake[]",
          "name": "",
          "type": "tuple[]"
        }
      ],
      "stateMutability": "view",
      "type": "function"
    },
    {
      "inputs": [],
      "name": "getContractBalance",
      "outputs": [
        {
          "internalType": "uint256",
          "name": "",
          "type": "uint256"
        }
      ],
      "stateMutability": "view",
      "type": "function"
    },
    {
      "inputs": [],
      "name": "getStakes",
      "outputs": [
        {
          "components": [
            {
              "internalType": "uint256",
              "name": "tokenAmount",
              "type": "uint256"
            },
            {
              "internalType": "uint256",
              "name": "startTime",
              "type": "uint256"
            },
            {
              "internalType": "uint256",
              "name": "duration",
              "type": "uint256"
            },
            {
              "internalType": "uint256",
              "name": "expectedReward",
              "type": "uint256"
            },
            {
              "internalType": "bool",
              "name": "isStaked",
              "type": "bool"
            },
            {
              "internalType": "bool",
              "name": "isClaimed",
              "type": "bool"
            }
          ],
          "internalType": "struct StakeEther.Stake[]",
          "name": "",
          "type": "tuple[]"
        }
      ],
      "stateMutability": "view",
      "type": "function"
    },
    {
      "inputs": [],
      "name": "owner",
      "outputs": [
        {
          "internalType": "address",
          "name": "",
          "type": "address"
        }
      ],
      "stateMutability": "view",
      "type": "function"
    },
    {
      "inputs": [],
      "name": "rewardRate",
      "outputs": [
        {
          "internalType": "uint256",
          "name": "",
          "type": "uint256"
        }
      ],
      "stateMutability": "view",
      "type": "function"
    },
    {
      "inputs": [],
      "name": "totalStakedInContract",
      "outputs": [
        {
          "internalType": "uint256",
          "name": "",
          "type": "uint256"
        }
      ],
      "stateMutability": "view",
      "type": "function"
    }
  ],
  "bytecode": "0x6080604052600160025534801561001557600080fd5b50336000806101000a81548173ffffffffffffffffffffffffffffffffffffffff021916908373ffffffffffffffffffffffffffffffffffffffff1602179055506005600281905550610ef68061006d6000396000f3fe608060405234801561001057600080fd5b50600436106100935760003560e01c8063b88a802f11610066578063b88a802f14610122578063df4b47761461012c578063efa8a33b1461014a578063fb6b99491461017f578063fd2b52021461019d57610093565b80635c8c4a83146100985780636f9fb98a146100c85780637b0a47ee146100e65780638da5cb5b14610104575b600080fd5b6100b260048036038101906100ad9190610a82565b6101b9565b6040516100bf9190610c0d565b60405180910390f35b6100d06102b5565b6040516100dd9190610c3e565b60405180910390f35b6100ee6102c5565b6040516100fb9190610c3e565b60405180910390f35b61010c6102cb565b6040516101199190610c68565b60405180910390f35b61012a6102ef565b005b61013461055f565b6040516101419190610c0d565b60405180910390f35b610164600480360381019061015f9190610caf565b61061c565b60405161017696959493929190610ceb565b60405180910390f35b610187610682565b6040516101949190610c3e565b60405180910390f35b6101b760048036038101906101b29190610d4c565b610688565b005b6060600360008373ffffffffffffffffffffffffffffffffffffffff1673ffffffffffffffffffffffffffffffffffffffff168152602001908152602001600020805480602002602001604051908101604052809291908181526020016000905b828210156102aa57838290600052602060002090600502016040518060c0016040529081600082015481526020016001820154815260200160028201548152602001600382015481526020016004820160009054906101000a900460ff161515151581526020016004820160019054906101000a900460ff1615151515815250508152602001906001019061021a565b505050509050919050565b60006102bf61092b565b47905090565b60025481565b60008054906101000a900473ffffffffffffffffffffffffffffffffffffffff1681565b6000600360003373ffffffffffffffffffffffffffffffffffffffff1673ffffffffffffffffffffffffffffffffffffffff16815260200190815260200160002090506000818054905003610370576040517ffb34894200000000000000000000000000000000000000000000000000000000815260040160405180910390fd5b6000805b828054905081101561055a57600083828154811061039557610394610d8c565b5b90600052602060002090600502019050600115158160040160009054906101000a900460ff1615151480156103df5750600015158160040160019054906101000a900460ff161515145b15610487576000610458826040518060c0016040529081600082015481526020016001820154815260200160028201548152602001600382015481526020016004820160009054906101000a900460ff161515151581526020016004820160019054906101000a900460ff1615151515815250506109b2565b905080846104669190610dea565b935060018260040160016101000a81548160ff021916908315150217905550505b600083036104c1576040517f73380d9900000000000000000000000000000000000000000000000000000000815260040160405180910390fd5b3373ffffffffffffffffffffffffffffffffffffffff166108fc849081150290604051600060405180830381858888f19350505050158015610507573d6000803e3d6000fd5b50823373ffffffffffffffffffffffffffffffffffffffff167ffc30cddea38e2bf4d6ea7d3f9ed3b6ad7f176419f4963bd81318067a4aee73fe60405160405180910390a3508080600101915050610374565b505050565b60606004805480602002602001604051908101604052809291908181526020016000905b8282101561061357838290600052602060002090600502016040518060c0016040529081600082015481526020016001820154815260200160028201548152602001600382015481526020016004820160009054906101000a900460ff161515151581526020016004820160019054906101000a900460ff16151515158152505081526020019060010190610583565b50505050905090565b6004818154811061062c57600080fd5b90600052602060002090600502016000915090508060000154908060010154908060020154908060030154908060040160009054906101000a900460ff16908060040160019054906101000a900460ff16905086565b60015481565b600073ffffffffffffffffffffffffffffffffffffffff163373ffffffffffffffffffffffffffffffffffffffff16036106ee576040517f510fbaea00000000000000000000000000000000000000000000000000000000815260040160405180910390fd5b60008203610728576040517f9cf8540c00000000000000000000000000000000000000000000000000000000815260040160405180910390fd5b60006040518060c0016040528084815260200142815260200183815260200160008152602001600115158152602001600015158152509050600360003373ffffffffffffffffffffffffffffffffffffffff1673ffffffffffffffffffffffffffffffffffffffff1681526020019081526020016000208190806001815401808255809150506001900390600052602060002090600502016000909190919091506000820151816000015560208201518160010155604082015181600201556060820151816003015560808201518160040160006101000a81548160ff02191690831515021790555060a08201518160040160016101000a81548160ff021916908315150217905550505082600160008282546108459190610dea565b9250508190555060048190806001815401808255809150506001900390600052602060002090600502016000909190919091506000820151816000015560208201518160010155604082015181600201556060820151816003015560808201518160040160006101000a81548160ff02191690831515021790555060a08201518160040160016101000a81548160ff0219169083151502179055505050823373ffffffffffffffffffffffffffffffffffffffff167f9e71bc8eea02a63969f509818f2dafb9254532904319f9dbda79b67bd34a5f3d60405160405180910390a3505050565b60008054906101000a900473ffffffffffffffffffffffffffffffffffffffff1673ffffffffffffffffffffffffffffffffffffffff163373ffffffffffffffffffffffffffffffffffffffff16146109b0576040517f30cd747100000000000000000000000000000000000000000000000000000000815260040160405180910390fd5b565b600080600090506000836040015184602001516109cf9190610dea565b9050600084600001519050600060015490506064816109ee9190610e1e565b83600254846109fd9190610e1e565b610a079190610e1e565b610a119190610e8f565b935083945050505050919050565b600080fd5b600073ffffffffffffffffffffffffffffffffffffffff82169050919050565b6000610a4f82610a24565b9050919050565b610a5f81610a44565b8114610a6a57600080fd5b50565b600081359050610a7c81610a56565b92915050565b600060208284031215610a9857610a97610a1f565b5b6000610aa684828501610a6d565b91505092915050565b600081519050919050565b600082825260208201905092915050565b6000819050602082019050919050565b6000819050919050565b610aee81610adb565b82525050565b60008115159050919050565b610b0981610af4565b82525050565b60c082016000820151610b256000850182610ae5565b506020820151610b386020850182610ae5565b506040820151610b4b6040850182610ae5565b506060820151610b5e6060850182610ae5565b506080820151610b716080850182610b00565b5060a0820151610b8460a0850182610b00565b50505050565b6000610b968383610b0f565b60c08301905092915050565b6000602082019050919050565b6000610bba82610aaf565b610bc48185610aba565b9350610bcf83610acb565b8060005b83811015610c00578151610be78882610b8a565b9750610bf283610ba2565b925050600181019050610bd3565b5085935050505092915050565b60006020820190508181036000830152610c278184610baf565b905092915050565b610c3881610adb565b82525050565b6000602082019050610c536000830184610c2f565b92915050565b610c6281610a44565b82525050565b6000602082019050610c7d6000830184610c59565b92915050565b610c8c81610adb565b8114610c9757600080fd5b50565b600081359050610ca981610c83565b92915050565b600060208284031215610cc557610cc4610a1f565b5b6000610cd384828501610c9a565b91505092915050565b610ce581610af4565b82525050565b600060c082019050610d006000830189610c2f565b610d0d6020830188610c2f565b610d1a6040830187610c2f565b610d276060830186610c2f565b610d346080830185610cdc565b610d4160a0830184610cdc565b979650505050505050565b60008060408385031215610d6357610d62610a1f565b5b6000610d7185828601610c9a565b9250506020610d8285828601610c9a565b9150509250929050565b7f4e487b7100000000000000000000000000000000000000000000000000000000600052603260045260246000fd5b7f4e487b7100000000000000000000000000000000000000000000000000000000600052601160045260246000fd5b6000610df582610adb565b9150610e0083610adb565b9250828201905080821115610e1857610e17610dbb565b5b92915050565b6000610e2982610adb565b9150610e3483610adb565b9250828202610e4281610adb565b91508282048414831517610e5957610e58610dbb565b5b5092915050565b7f4e487b7100000000000000000000000000000000000000000000000000000000600052601260045260246000fd5b6000610e9a82610adb565b9150610ea583610adb565b925082610eb557610eb4610e60565b5b82820490509291505056fea26469706673582212209013bd40c23ad57ef10097ae16ee07828f384b97c7550117aa99c146a59e28ee64736f6c63430008180033",
  "linkReferences": {},
  "deployedLinkReferences": {}
}