{
  "_format": "hh-sol-artifact-1",
  "contractName": "StakeERC20",
  "sourceName": "contracts/StakeERC20.sol",
  "abi": [
    {
      "inputs": [
        {
          "internalType": "address",
          "name": "_tokenAddress",
          "type": "address"
        }
      ],
      "stateMutability": "nonpayable",
      "type": "constructor"
    },
    {
      "inputs": [],
      "name": "NoActiveStake",
      "type": "error"
    },
    {
      "inputs": [],
      "name": "NoRewardsToClaim",
      "type": "error"
    },
    {
      "inputs": [],
      "name": "NotOwner",
      "type": "error"
    },
    {
      "inputs": [],
      "name": "ZeroAddressDetected",
      "type": "error"
    },
    {
      "inputs": [],
      "name": "ZeroValueNotAllowed",
      "type": "error"
    },
    {
      "anonymous": false,
      "inputs": [
        {
          "indexed": true,
          "internalType": "address",
          "name": "user",
          "type": "address"
        },
        {
          "indexed": true,
          "internalType": "uint256",
          "name": "amount",
          "type": "uint256"
        }
      ],
      "name": "Staked",
      "type": "event"
    },
    {
      "inputs": [
        {
          "internalType": "uint256",
          "name": "_amount",
          "type": "uint256"
        },
        {
          "internalType": "uint256",
          "name": "_duration",
          "type": "uint256"
        }
      ],
      "name": "addStake",
      "outputs": [],
      "stateMutability": "nonpayable",
      "type": "function"
    },
    {
      "inputs": [
        {
          "internalType": "uint256",
          "name": "",
          "type": "uint256"
        }
      ],
      "name": "allStakes",
      "outputs": [
        {
          "internalType": "uint256",
          "name": "tokenAmount",
          "type": "uint256"
        },
        {
          "internalType": "uint256",
          "name": "startTime",
          "type": "uint256"
        },
        {
          "internalType": "uint256",
          "name": "duration",
          "type": "uint256"
        },
        {
          "internalType": "uint256",
          "name": "expectedReward",
          "type": "uint256"
        },
        {
          "internalType": "bool",
          "name": "isStaked",
          "type": "bool"
        },
        {
          "internalType": "bool",
          "name": "isClaimed",
          "type": "bool"
        }
      ],
      "stateMutability": "view",
      "type": "function"
    },
    {
      "inputs": [],
      "name": "claimReward",
      "outputs": [],
      "stateMutability": "nonpayable",
      "type": "function"
    },
    {
      "inputs": [
        {
          "internalType": "address",
          "name": "_user",
          "type": "address"
        }
      ],
      "name": "getAnyStake",
      "outputs": [
        {
          "components": [
            {
              "internalType": "uint256",
              "name": "tokenAmount",
              "type": "uint256"
            },
            {
              "internalType": "uint256",
              "name": "startTime",
              "type": "uint256"
            },
            {
              "internalType": "uint256",
              "name": "duration",
              "type": "uint256"
            },
            {
              "internalType": "uint256",
              "name": "expectedReward",
              "type": "uint256"
            },
            {
              "internalType": "bool",
              "name": "isStaked",
              "type": "bool"
            },
            {
              "internalType": "bool",
              "name": "isClaimed",
              "type": "bool"
            }
          ],
          "internalType": "struct StakeERC20.Stake[]",
          "name": "",
          "type": "tuple[]"
        }
      ],
      "stateMutability": "view",
      "type": "function"
    },
    {
      "inputs": [],
      "name": "getContractBalance",
      "outputs": [
        {
          "internalType": "uint256",
          "name": "",
          "type": "uint256"
        }
      ],
      "stateMutability": "view",
      "type": "function"
    },
    {
      "inputs": [],
      "name": "getStakes",
      "outputs": [
        {
          "components": [
            {
              "internalType": "uint256",
              "name": "tokenAmount",
              "type": "uint256"
            },
            {
              "internalType": "uint256",
              "name": "startTime",
              "type": "uint256"
            },
            {
              "internalType": "uint256",
              "name": "duration",
              "type": "uint256"
            },
            {
              "internalType": "uint256",
              "name": "expectedReward",
              "type": "uint256"
            },
            {
              "internalType": "bool",
              "name": "isStaked",
              "type": "bool"
            },
            {
              "internalType": "bool",
              "name": "isClaimed",
              "type": "bool"
            }
          ],
          "internalType": "struct StakeERC20.Stake[]",
          "name": "",
          "type": "tuple[]"
        }
      ],
      "stateMutability": "view",
      "type": "function"
    },
    {
      "inputs": [],
      "name": "owner",
      "outputs": [
        {
          "internalType": "address",
          "name": "",
          "type": "address"
        }
      ],
      "stateMutability": "view",
      "type": "function"
    },
    {
      "inputs": [],
      "name": "rewardRate",
      "outputs": [
        {
          "internalType": "uint256",
          "name": "",
          "type": "uint256"
        }
      ],
      "stateMutability": "view",
      "type": "function"
    },
    {
      "inputs": [],
      "name": "tokenAddress",
      "outputs": [
        {
          "internalType": "address",
          "name": "",
          "type": "address"
        }
      ],
      "stateMutability": "view",
      "type": "function"
    },
    {
      "inputs": [],
      "name": "totalStakedInContract",
      "outputs": [
        {
          "internalType": "uint256",
          "name": "",
          "type": "uint256"
        }
      ],
      "stateMutability": "view",
      "type": "function"
    }
  ],
  "bytecode": "0x608060405260016003553480156200001657600080fd5b506040516200130c3803806200130c83398181016040528101906200003c919062000136565b336000806101000a81548173ffffffffffffffffffffffffffffffffffffffff021916908373ffffffffffffffffffffffffffffffffffffffff16021790555080600160006101000a81548173ffffffffffffffffffffffffffffffffffffffff021916908373ffffffffffffffffffffffffffffffffffffffff16021790555060056003819055505062000168565b600080fd5b600073ffffffffffffffffffffffffffffffffffffffff82169050919050565b6000620000fe82620000d1565b9050919050565b6200011081620000f1565b81146200011c57600080fd5b50565b600081519050620001308162000105565b92915050565b6000602082840312156200014f576200014e620000cc565b5b60006200015f848285016200011f565b91505092915050565b61119480620001786000396000f3fe608060405234801561001057600080fd5b506004361061009e5760003560e01c8063b88a802f11610066578063b88a802f1461014b578063df4b477614610155578063efa8a33b14610173578063fb6b9949146101a8578063fd2b5202146101c65761009e565b80635c8c4a83146100a35780636f9fb98a146100d35780637b0a47ee146100f15780638da5cb5b1461010f5780639d76ea581461012d575b600080fd5b6100bd60048036038101906100b89190610c25565b6101e2565b6040516100ca9190610db0565b60405180910390f35b6100db6102de565b6040516100e89190610de1565b60405180910390f35b6100f9610389565b6040516101069190610de1565b60405180910390f35b61011761038f565b6040516101249190610e0b565b60405180910390f35b6101356103b3565b6040516101429190610e0b565b60405180910390f35b6101536103d9565b005b61015d61065f565b60405161016a9190610db0565b60405180910390f35b61018d60048036038101906101889190610e52565b61071c565b60405161019f96959493929190610e8e565b60405180910390f35b6101b0610782565b6040516101bd9190610de1565b60405180910390f35b6101e060048036038101906101db9190610eef565b610788565b005b6060600460008373ffffffffffffffffffffffffffffffffffffffff1673ffffffffffffffffffffffffffffffffffffffff168152602001908152602001600020805480602002602001604051908101604052809291908181526020016000905b828210156102d357838290600052602060002090600502016040518060c0016040529081600082015481526020016001820154815260200160028201548152602001600382015481526020016004820160009054906101000a900460ff161515151581526020016004820160019054906101000a900460ff16151515158152505081526020019060010190610243565b505050509050919050565b60006102e8610ace565b600160009054906101000a900473ffffffffffffffffffffffffffffffffffffffff1673ffffffffffffffffffffffffffffffffffffffff166370a08231306040518263ffffffff1660e01b81526004016103439190610e0b565b602060405180830381865afa158015610360573d6000803e3d6000fd5b505050506040513d601f19601f820116820180604052508101906103849190610f44565b905090565b60035481565b60008054906101000a900473ffffffffffffffffffffffffffffffffffffffff1681565b600160009054906101000a900473ffffffffffffffffffffffffffffffffffffffff1681565b6000600460003373ffffffffffffffffffffffffffffffffffffffff1673ffffffffffffffffffffffffffffffffffffffff1681526020019081526020016000209050600081805490500361045a576040517ffb34894200000000000000000000000000000000000000000000000000000000815260040160405180910390fd5b6000805b828054905081101561065a57600083828154811061047f5761047e610f71565b5b90600052602060002090600502019050600115158160040160009054906101000a900460ff1615151480156104c95750600015158160040160019054906101000a900460ff161515145b15610571576000610542826040518060c0016040529081600082015481526020016001820154815260200160028201548152602001600382015481526020016004820160009054906101000a900460ff161515151581526020016004820160019054906101000a900460ff161515151581525050610b55565b905080846105509190610fcf565b935060018260040160016101000a81548160ff021916908315150217905550505b600083036105ab576040517f73380d9900000000000000000000000000000000000000000000000000000000815260040160405180910390fd5b600160009054906101000a900473ffffffffffffffffffffffffffffffffffffffff1673ffffffffffffffffffffffffffffffffffffffff1663a9059cbb33856040518363ffffffff1660e01b8152600401610608929190611003565b6020604051808303816000875af1158015610627573d6000803e3d6000fd5b505050506040513d601f19601f8201168201806040525081019061064b9190611058565b5050808060010191505061045e565b505050565b60606005805480602002602001604051908101604052809291908181526020016000905b8282101561071357838290600052602060002090600502016040518060c0016040529081600082015481526020016001820154815260200160028201548152602001600382015481526020016004820160009054906101000a900460ff161515151581526020016004820160019054906101000a900460ff16151515158152505081526020019060010190610683565b50505050905090565b6005818154811061072c57600080fd5b90600052602060002090600502016000915090508060000154908060010154908060020154908060030154908060040160009054906101000a900460ff16908060040160019054906101000a900460ff16905086565b60025481565b600073ffffffffffffffffffffffffffffffffffffffff163373ffffffffffffffffffffffffffffffffffffffff16036107ee576040517f510fbaea00000000000000000000000000000000000000000000000000000000815260040160405180910390fd5b60008203610828576040517f9cf8540c00000000000000000000000000000000000000000000000000000000815260040160405180910390fd5b60006040518060c0016040528084815260200142815260200183815260200160008152602001600115158152602001600015158152509050600160009054906101000a900473ffffffffffffffffffffffffffffffffffffffff1673ffffffffffffffffffffffffffffffffffffffff166323b872dd3330866040518463ffffffff1660e01b81526004016108bf93929190611085565b6020604051808303816000875af11580156108de573d6000803e3d6000fd5b505050506040513d601f19601f820116820180604052508101906109029190611058565b50600460003373ffffffffffffffffffffffffffffffffffffffff1673ffffffffffffffffffffffffffffffffffffffff1681526020019081526020016000208190806001815401808255809150506001900390600052602060002090600502016000909190919091506000820151816000015560208201518160010155604082015181600201556060820151816003015560808201518160040160006101000a81548160ff02191690831515021790555060a08201518160040160016101000a81548160ff021916908315150217905550505082600260008282546109e89190610fcf565b9250508190555060058190806001815401808255809150506001900390600052602060002090600502016000909190919091506000820151816000015560208201518160010155604082015181600201556060820151816003015560808201518160040160006101000a81548160ff02191690831515021790555060a08201518160040160016101000a81548160ff0219169083151502179055505050823373ffffffffffffffffffffffffffffffffffffffff167f9e71bc8eea02a63969f509818f2dafb9254532904319f9dbda79b67bd34a5f3d60405160405180910390a3505050565b60008054906101000a900473ffffffffffffffffffffffffffffffffffffffff1673ffffffffffffffffffffffffffffffffffffffff163373ffffffffffffffffffffffffffffffffffffffff1614610b53576040517f30cd747100000000000000000000000000000000000000000000000000000000815260040160405180910390fd5b565b60008060009050600083604001518460200151610b729190610fcf565b905060008460000151905060006002549050606481610b9191906110bc565b8360035484610ba091906110bc565b610baa91906110bc565b610bb4919061112d565b935083945050505050919050565b600080fd5b600073ffffffffffffffffffffffffffffffffffffffff82169050919050565b6000610bf282610bc7565b9050919050565b610c0281610be7565b8114610c0d57600080fd5b50565b600081359050610c1f81610bf9565b92915050565b600060208284031215610c3b57610c3a610bc2565b5b6000610c4984828501610c10565b91505092915050565b600081519050919050565b600082825260208201905092915050565b6000819050602082019050919050565b6000819050919050565b610c9181610c7e565b82525050565b60008115159050919050565b610cac81610c97565b82525050565b60c082016000820151610cc86000850182610c88565b506020820151610cdb6020850182610c88565b506040820151610cee6040850182610c88565b506060820151610d016060850182610c88565b506080820151610d146080850182610ca3565b5060a0820151610d2760a0850182610ca3565b50505050565b6000610d398383610cb2565b60c08301905092915050565b6000602082019050919050565b6000610d5d82610c52565b610d678185610c5d565b9350610d7283610c6e565b8060005b83811015610da3578151610d8a8882610d2d565b9750610d9583610d45565b925050600181019050610d76565b5085935050505092915050565b60006020820190508181036000830152610dca8184610d52565b905092915050565b610ddb81610c7e565b82525050565b6000602082019050610df66000830184610dd2565b92915050565b610e0581610be7565b82525050565b6000602082019050610e206000830184610dfc565b92915050565b610e2f81610c7e565b8114610e3a57600080fd5b50565b600081359050610e4c81610e26565b92915050565b600060208284031215610e6857610e67610bc2565b5b6000610e7684828501610e3d565b91505092915050565b610e8881610c97565b82525050565b600060c082019050610ea36000830189610dd2565b610eb06020830188610dd2565b610ebd6040830187610dd2565b610eca6060830186610dd2565b610ed76080830185610e7f565b610ee460a0830184610e7f565b979650505050505050565b60008060408385031215610f0657610f05610bc2565b5b6000610f1485828601610e3d565b9250506020610f2585828601610e3d565b9150509250929050565b600081519050610f3e81610e26565b92915050565b600060208284031215610f5a57610f59610bc2565b5b6000610f6884828501610f2f565b91505092915050565b7f4e487b7100000000000000000000000000000000000000000000000000000000600052603260045260246000fd5b7f4e487b7100000000000000000000000000000000000000000000000000000000600052601160045260246000fd5b6000610fda82610c7e565b9150610fe583610c7e565b9250828201905080821115610ffd57610ffc610fa0565b5b92915050565b60006040820190506110186000830185610dfc565b6110256020830184610dd2565b9392505050565b61103581610c97565b811461104057600080fd5b50565b6000815190506110528161102c565b92915050565b60006020828403121561106e5761106d610bc2565b5b600061107c84828501611043565b91505092915050565b600060608201905061109a6000830186610dfc565b6110a76020830185610dfc565b6110b46040830184610dd2565b949350505050565b60006110c782610c7e565b91506110d283610c7e565b92508282026110e081610c7e565b915082820484148315176110f7576110f6610fa0565b5b5092915050565b7f4e487b7100000000000000000000000000000000000000000000000000000000600052601260045260246000fd5b600061113882610c7e565b915061114383610c7e565b925082611153576111526110fe565b5b82820490509291505056fea2646970667358221220b3520a6e3cd8a755ed5d83e1ea3c25b4b81de490a338bac66cb27c17df4cb36764736f6c63430008180033",
  "linkReferences": {},
  "deployedLinkReferences": {}
}